:100000000C94AC010C94E4010C94E4010C94E40114
:100010000C94E4010C94E4010C94E4010C94E401CC
:100020000C94E4010C94E4010C9481200C9455216F
:100030000C94FD1A0C94E4010C94E4010C94E4017A
:100040000C94E4010C94E4010C94E4010C94E4019C
:100050000C94E4010C94841B0C94E4010C94E401D2
:100060000C94E4010C94E4010C94E4010C94E4017C
:100070000C94E4010C94E4010C94E4010C94E4016C
:100080000C94E4010C94E4010C94E4010C94E4015C
:100090000C94E4010C94E4010C94E4010C94E4014C
:1000A0000C94E4010C94E4010C94E40129001A007E
:1000B0000800150017001C0018000C0012004C006E
:1000C00076001600070009000A000B000D000E0064
:1000D00000003900E1001B000600190005000500C2
:1000E00011001000E5002152E000E20000001500C0
:1000F0002C002C00000035000000E400000000008F
:10010000000000002A2B2800000000000000000072
:100110000000000000000029000000002C1E342018
:10012000212224342627252E362D3738271E1F203E
:100130002122232425263333362E37381F04050683
:100140000708090A0B0C0D0E0F10111213141516C7
:100150001718191A1B1C1D2F3130232D35040506C5
:100160000708090A0B0C0D0E0F10111213141516A7
:100170001718191A1B1C1D2F3130354C00000000B8
:10018000000000000000000000000000000000006F
:10019000000000000000000000000000000000005F
:1001A0007E0F00D4FFFFFFC7000000780C03430060
:1001B0002D003100330058000000120366006C006F
:1001C0007500720070006C0065007300000004038D
:1001D000090409025B00030100A0FA090400000100
:1001E00003010100092111010001224000070581DE
:1001F00003080001090401000203000000092111A5
:1002000001000122220007058203200001070503E7
:10021000032000010904020001030000000921116C
:1002200001000122B600070584032000011201002D
:1002300002000000083001504600010102000106E2
:1002400060FF0961A1010962150026FF0095207574
:100250000881020963150026FF00952075089102A8
:10026000C005010902A10185020901A100050919C2
:10027000012908150025019508750181020501096C
:100280003009311581257F950275088106093815D9
:1002900081257F950175088106050C0A38021581B4
:1002A000257F950175088106C0C005010980A1015F
:1002B000850319012AB700150126B70095017510AD
:1002C0008100C0050C0901A101850419012AA002C1
:1002D000150126A002950175108100C005010906CF
:1002E000A1018506050719E029E7150025019508F4
:1002F000750181020507190029EF1500250195F008
:1003000075018102050819012905950575019102FC
:10031000950175039101C005010906A101050719A1
:10032000E029E71500250195087501810295017501
:100330000881010507190029FF150026FF00950611
:1003400075088100050819012905950575019102B7
:10035000950175039101C00011241FBECFEFDAE0B3
:10036000DEBFCDBF04B603FE18C08091B9029091E4
:10037000BA02A091BB02B091BC028730904BA7405B
:10038000B04B59F41092B9021092BA021092BB020B
:100390001092BC02E0E0F8E3099511E0A0E0B1E0C2
:1003A000E8E4F8E402C005900D92A63AB107D9F747
:1003B00022E0A6EAB1E001C01D92A93BB207E1F735
:1003C0000E9420110C94D0230C94000081E0089529
:1003D000811112C0643080F44A3070F4E42FF0E0F0
:1003E0008AE0689FE00DF11D1124EE0FFF1FE45518
:1003F000FF4F85919491089581E090E0089581E008
:1004000008950E94FF01089581E008950E94FF0170
:1004100008950E940602089508950E940C0208950E
:10042000A6E0B0E0E6E1F2E00C942C2349835A8385
:100430009E833091AD0189819A8131111AC03E812C
:10044000332399F0222389F00E948407182F682F04
:1004500089819A810E94600769817A81812F0E9437
:10046000930E2696E3E00C9448230E947207182FFF
:10047000F3CF0E94840769817A81F1CFFC01262F96
:100480004081518162817381848195810E94100233
:100490000895CF93DF93EC0161E00E943E02BE011C
:1004A0000E940102DF91CF910895CF93DF93EC0179
:1004B00060E00E943E02BE010E940D02DF91CF91DA
:1004C000089508950E945C060E9461022FEF84E364
:1004D0009CE0215080409040E1F700C0000008956A
:1004E0000E9462020E94A81B08950E9462020E945C
:1004F000CC1B08950F931F93CF93DF938C0161E082
:100500000E943E02EC01B8010E941714811106C03E
:1005100080E0DF91CF911F910F910895B801CE0136
:100520000E9409028823A1F3B801CE010E94D518C8
:10053000882371F3B801CE010E94FE14882341F391
:10054000B801CE010E944718882311F3B801CE01EB
:100550000E9419198823E1F2F8018581882361F04E
:10056000C330FCE7DF07E9F058F4C115ECE7DE071C
:10057000A9F0C130DC47B9F0C8010E940402C9CF1C
:10058000CB358CE7D807A9F0CC35ECE7DE0771F066
:10059000CA35DC4789F70E94DC0BEECF0E9470025F
:1005A000B7CF0E94E40B0E947502B2CF0E94D20B1B
:1005B000E3CF0E94E00BE0CF0E94D91A0E94030310
:1005C00008950E9407030E94DE1A0895089581E0AD
:1005D00008950895CF93DF93D82F0E94E702C82F84
:1005E000882319F08D2F0E94E9028C2FDF91CF9183
:1005F00008950895CF93C82F0E94E6028C2F0E9481
:10060000EA02CF91089580E00E94FA0208950E94C4
:100610006C190E94FA020895CF930E946C19C82F9A
:100620008091A8018C1779F0C093A8010E94691BE2
:100630006093A9017093AA018093AB019093AC01E0
:100640008C2F0E94FA02CF910895ADE0B0E0EBE26A
:10065000F3E00C942D23488759876A877B878C8722
:100660009D8791110E940A0B1F8286E0FE01389639
:10067000DE01119601900D928A95E1F78D8181112D
:100680000DC029813A814B815C816D817E818F8192
:100690000E943D0A2D96E2E00C944923CE0101967A
:1006A0000E9449028111EDCFF5CFFC012481213058
:1006B00021F4808191810E94B1070895662329F079
:1006C0000E94A4110E94771208950E94FE11FACF91
:1006D000CF93C82F8823B9F08CEF8C0F813AA8F400
:1006E0006C2F80910001909101010E94FF198823D5
:1006F00029F08C2F0E94CA0A0E94430B8C2F0E9463
:10070000C20A0E94430BCF91089580E28C0F88307B
:1007100048F4C77081E001C0880FCA95EAF70E94CB
:10072000ED0AEFCFEBE5EC0FE33040F4F0E0E45BF3
:10073000FE4F808190E00E94A119E5CFE8E5EC0F23
:10074000EB3150F4F0E0EE0FFF1FEA5EFE4F8081C8
:1007500091810E94C619D7CF83E38C0F833198F61D
:1007600061E08C2F0E945E03CECF882381F19CEF45
:10077000980F913A28F40E94CA0A0E94430B0895E8
:1007800090E2980F983050F4877091E001C0990F73
:100790008A95EAF7892F0E94F30AEFCF9BE5980F1D
:1007A000933028F490E080E00E94A119089598E524
:1007B000980F9B3128F490E080E00E94C6190895BC
:1007C00093E3980F933118F460E00E945E0308955C
:1007D0001F93CF93DF93182FEB010E94680320979C
:1007E00039F4812F0E94B503DF91CF911F910895B5
:1007F0008FE99FE00197F1F700C000002197EFCF4C
:100800006AE070E0893311F460E570E00E94E8036B
:100810000895882321F00E94ED0A0E94430B089559
:10082000882321F00E94F30A0E94430B0895B0E050
:10083000A0E0EDE1F4E00C9426236C01D62FC72F45
:10084000FC011581068102950F700E94E30AE82ED3
:100850008823E9F0E12E1123D1F08C2F807F8034A2
:1008600051F080E28D0F8830F8F0011104C08C2F18
:10087000807E8032C9F08091970282FF15C082E0AD
:100880000E94A60B0E94E30A91E0E82EE926BC2E06
:10089000B2949FE0B922FBE0FB15B8F1EB2DF0E03C
:1008A000EE52FC4D0C941023E12CF1CF0C2F0F7065
:1008B000C07F11F00295007F112399F0002359F0B9
:1008C00080E28D0F883010F0D11107C0802F0E9478
:1008D000ED0A0E94430B8D2F5AC0802F0E94FD0A03
:1008E000F8CF8D2F0E94B503002379F080E28D0FA1
:1008F000883010F0D11104C0802F0E94F30A03C089
:10090000802F0E94030B0E94430BEB2DE850FF0B3E
:10091000349720F40E946C190E94FA02EE2089F0AC
:100920000E94DF0A80FD0DC0F60115820E94D90ADF
:100930000E94D406C6010E9423060E94D90A0E9482
:10094000E006CDB7DEB7E9E00C9442232C2F2F70E0
:10095000F22EC07FC03219F0F29480EFF822DD232E
:1009600041F0D130D1F1112309F444C00023F1F05A
:10097000B2CF8091970282FD15C0112359F0FF205C
:1009800029F08F2D0E94ED0A0E94430B80E00E9407
:100990006803BBCF80E00E94B503FF2009F4B5CF08
:1009A0008F2DABCF112369F0011104C08F2D0E9450
:1009B0000904ABCF013009F0A8CF8F2D0E94210B85
:1009C000A4CF0111A2CF8F2D0E9410048F2D0E9461
:1009D0002D0B8F2D0E94110B98CF112321F0063083
:1009E00008F093CFE3CF053008F08FCF8F2D0E9412
:1009F00010048BCF0023D1F3D93369F43FEF87EE96
:100A000093E0315080409040E1F700C000008D2F0E
:100A10000E94B5037ACFEFE3FCE93197F1F7F5CF08
:100A20008C2F86958695837069F0813009F06DCFA3
:100A30008D2F9C2F9370111102C080E090E00E94D6
:100A4000C61963CF8D2F9C2F9370111102C080E0C7
:100A500090E00E94A11959CF612F8D2F0E945E0353
:100A600054CF8C2F837079F511114FCF4D2F4295B4
:100A700046954770440F440F8D2F8F70042E01C090
:100A8000880F0A94EAF72D2F2071D4FF07C02FE0BA
:100A900030E001C0220F4A95EAF72095C695C69529
:100AA000C370822BC23049F058F4C13019F00E9453
:100AB000B0062BCF0E94AA0628CF0E94B60625CFEB
:100AC0000E94A70622CF8695112311F08C2F8170EA
:100AD000882309F41ACF4D2F429546954770440F4D
:100AE000440F8D2F8F70042E01C0880F0A94EAF7EF
:100AF0002D2F2071D4FF07C02FE030E001C0220F5E
:100B00004A95EAF72095C695C695C370822BC230E8
:100B100049F058F4C13019F00E94FF06F6CE0E9449
:100B2000F906F3CE0E940507F0CE0E94C206EDCE74
:100B3000CF70112329F08C2F0E94D4068D2F37CF30
:100B40008D2F0E9410048C2F0E94E006DECED23F33
:100B500041F160F4D03FB9F0D13F81F0112309F4A5
:100B600046C00111B8CE8C2F8F711FC0D33F01F149
:100B7000D43FA1F78091970282FD24C08C2F8F7102
:100B8000112311F312C0112341F0053008F0BDCE3E
:100B90008C2F8F710E94ED06B8CE063008F0B5CECE
:100BA000F7CF8C2F8F711111CFCF0E94D406ADCE0D
:100BB000112329F08C2F8F710E94CB06A6CE0E94A4
:100BC000C706A3CE112349F0CF718C2F0E94D40603
:100BD00063E08C2F0E94880B98CE81E00E94A60BC8
:100BE000023008F492CE82E00E94A60B8ECE002343
:100BF00079F0D93341F4FFEF27EE33E0F150204094
:100C00003040E1F702CF8FE39CE90197F1F7FDCE89
:100C10008C2F8F7199CF0F931F93CF93DF93EC019C
:100C2000688179818D810E94BC078C010E940B072D
:100C30000E94A606B801CE010E941704DF91CF9151
:100C40001F910F910895CF93DF93EC018C8188233E
:100C500099F0CE010E947A02811111C00E94E30A2C
:100C6000882351F08D81882339F08091970282FF8B
:100C700003C082E00E94A60BDF91CF910895CE01C0
:100C80000E940B06CE010E945502F6CF90E080E054
:100C90000E94A11990E080E00E94C6190E940A0BF0
:100CA0000E94430B0E9493120E94771208950E94A3
:100CB000D20A0E94460608950E94FA0A0E94570628
:100CC000089592959F70963091F058F4925F9F70BE
:100CD000923058F4803F19F030F4883E30F481E0CF
:100CE00008959A5FF4CF843FD1F380E00895883E61
:100CF000B0F3813FD1F7F3CFFC012481222339F0F7
:100D0000808191810E94B1070E946106089580E070
:100D10000895A6E0B0E0EFE8F6E00C942D232696C7
:100D2000E2E00C944923A7E0B0E0E9E9F6E00C9496
:100D30002D232796E2E00C94492308950E949D06F6
:100D400008950E949E068093BE01089508950E9412
:100D5000A10608959091BE01892B0E94A1060895D5
:100D60009091BE0189230E94A10608959091BE0131
:100D700089270E94A10608950E949D0608950E9459
:100D8000BC0608950E94BF068093BD01089580E0CF
:100D90000E94C206089591E001C0990F8A95EAF772
:100DA000892F0E94C206089521E030E001C0220F81
:100DB0008A95EAF78091BD01822B0E94C2060895B0
:100DC00021E030E001C0220F8A95EAF7209580915A
:100DD000BD0182230E94C206089521E030E001C0D7
:100DE000220F8A95EAF78091BD0182270E94C206F0
:100DF00008959091BD01892B0E94C206089590919B
:100E0000BD0189230E94C20608959091BD018927E2
:100E10000E94C20608950895262F277091E001C010
:100E2000990F2A95EAF723E0769567952A95E1F7D9
:100E3000FB01EE0FFF1FE60FF71FE40FF51F50E059
:100E400040E0682F70E08191DF0111979B01042E33
:100E500002C0369527950A94E2F72170219528273C
:100E6000292328272C934F5F5F4F4330510559F7B3
:100E70000895A82FA77023E0969587952A95E1F706
:100E8000FC01EE0FFF1FE80FF91FE60FF71F50E000
:100E900040E080E0219130E00A2E02C0369527958F
:100EA0000A94E2F721703327042E01C0220F0A941E
:100EB000EAF7822B4F5F5F4F4330510559F7089592
:100EC000262F943070F48A3060F4682F70E08AE046
:100ED000989F600D711D11244EEA51E0822F0E94EF
:100EE0000C070895292F943068F48A3058F490E064
:100EF0006EEA71E03AE0239F800D911D11240E945B
:100F00003907089580E00895CF92DF92FF920F9302
:100F10001F93CF93DF936C010091BD018091BE01BF
:100F2000082BC7E0D0E010E0FC2EC8010C2E02C058
:100F3000959587950A94E2F780FD0CC02197A0F75C
:100F4000F12C8F2DDF91CF911F910F91FF90DF90AA
:100F5000CF900895B6018C2F0E949F0E019771F3D8
:100F6000F0CFCF93DF93EC010E948407BE010E9473
:100F70009F0EDF91CF9108951F93CF93DF93EB01E5
:100F80009091AD01992339F0CB010E94B107DF9117
:100F9000CF911F910895882369F0CB010E948407A7
:100FA000182F682FCE010E946007BE01812F0E947A
:100FB0009F0EEDCFCB010E947207182FF6CFE1E014
:100FC000F0E0DF0102C0AA0FBB1F6A95E2F7BD0186
:100FD000DF0102C0AA0FBB1F4A95E2F76A2B01C0CE
:100FE000EE0F2A95EAF7962F9823961302C08E2BC0
:100FF0000895E0958E230895242F462F682F809121
:10100000BD010E94DF070E94C20608951F93CF937F
:10101000DF93C091BF0117E08091C0018C1304C021
:10102000DF91CF911F910895D0E01C9FF0011D9F8B
:10103000F00D1124EF53FE4F208131814281538105
:101040006481758186810E9493062196C770E4CFE2
:101050002091F9013091FA014091FB015091FC017E
:101060006091FD017091FE018091FF010E94930645
:101070000895CF93DF938091FF01807F09F04DC0E9
:101080008091FE01882309F448C0E091BF0150918E
:10109000C001C091FA01D091F9016091FB017091FA
:1010A000FC0147E05E17C9F18E2F90E0E49FF0014C
:1010B0001124EF53FE4F2481222391F1489FF00128
:1010C000499FF00D1124DF01AF53BE4F11962C91B3
:1010D00011972C1325C02C912D1322C015962C91FD
:1010E000159721111DC012962D913C91261B370B8F
:1010F000283C3105A8F48091FF018F7080618093B6
:10110000FF01E953FE4F80818F708061808389EFFA
:1011100091E00E9423060E940608DF91CF91089576
:10112000FC013196E770BECF482F2091BF0190910E
:10113000C00157E0291302C080E0089530E0529FBB
:10114000F001539FF00D1124EF53FE4F818168137E
:1011500006C08081481303C085818111EECF2F5FC7
:101160003F4F2770E7CFA4E1B0E0E9EBF8E00C9443
:1011700023238C0186E0F801DE011F9601900D9279
:101180008A95E1F7F8018481E58099EFA92E91E035
:10119000B92E9091FD0191111FC08823D1F0EE204E
:1011A000A9F0C8010E947C06F82E882379F087E018
:1011B000F801D50101900D928A95E1F7C5010E94D1
:1011C00055030E9439080E9428085FC0C8010E9488
:1011D0002306FF24F39459C0C080D180828093807D
:1011E000F090FE012091FB013091FC01A401421B13
:1011F000530BFF2009F4F9C0483C510508F0A7C083
:10120000882309F442C09091FA018091FF01282FB0
:10121000207F09F05CC09D1116C09091F901C912A0
:1012200012C0E1104EC08F7080618093FF010E9458
:10123000280889EF91E00E9423068091FF01F801C0
:101240008683F12C22C0E1103CC06D2D8C2D0E94B4
:1012500094086D2D8C2D0E949408E82E8111F1CFF9
:10126000CF86D88A8F8598890E94B107292F229529
:101270002F70243078F49F702230A8F09923B9F0B1
:10128000F8019681907F99F4FE2C8F2D6496ECE006
:101290000C943F232A5F2F70223068F0C8010E940F
:1012A0002306EF2CF1CF992311F0882369F3805E98
:1012B000883050F3F3CF803F38F3815F833070F78D
:1012C000E3CF8091FF0181608093FF01BACF9D1130
:1012D00013C09091F901C9120FC0E1100DC08683AF
:1012E000C8010E94230687E0F801A9EFB1E0019050
:1012F0000D928A95E1F767CFC8010E947C0688238A
:1013000009F464CFEE2009F461CF8091FF018032AF
:1013100088F02091F9013091FA01398728879B865E
:101320008A869091FD019C871D868E87CE01089646
:101330000E94230687E0F801A9EFB1E001900D9229
:101340008A95E1F70E9439080E94280842CF9091BF
:10135000FF01292F207FA1F4682D9A8A898AA6018E
:101360007A899E2D0E94890689EF91E00E942306CA
:1013700087E0F50111928A95E9F70E94280861CF6C
:10138000882309F482CF8091FA018D1110C08091D9
:10139000F901C8120CC0E1100AC09683C8010E946E
:1013A000230687E0F50111928A95E9F76ECFC8010F
:1013B0000E947C06882309F409CFEE2009F406CFA9
:1013C0008091FF01803208F4B5CF2091F90130916E
:1013D000FA013A8329839C828B829091FD019D833F
:1013E0001E828F83CE010196A3CF483C5105B8F5EC
:1013F000882309F4EECEFE2CEE2009F4E7CE80918E
:10140000FA018D111EC08091F901C8121AC0809195
:10141000FF0180FD0DC0982F907F51F08683903F93
:1014200009F45ECF982F907F905F8F70892B57CFF4
:1014300087E0F801A9EFB1E001900D928A95E1F7FC
:1014400024CFC8010E947C06811174CF8091FF01D6
:1014500081608093FF01C8010E94230616CF682D8A
:101460009A8A898AA6017A899E2D0E94890687E038
:10147000F50111928A95E9F7A6CEAEE0B0E0E3E47B
:10148000FAE00C942C23288739874A875B876C877E
:101490007D878E87CE0108960E94B3088823B1F01D
:1014A0006C85662341F0288539854A855B857D8575
:1014B0008E850E94930617E08091BF019091C00134
:1014C00089133DC02E96E3E00C94482387E0FE018B
:1014D0003896DE01119601900D928A95E1F78C8580
:1014E000882349F32091C00130E0C901019687703B
:1014F00099274091BF014817190699F097E0929FEC
:10150000D001939FB00D1124AF53BE4FFE01319611
:1015100001900D929A95E1F78093C0010E94060810
:10152000CACF0E945C061092C0011092BF0187E0F2
:10153000E9EFF1E0DF011D928A95E9F7BCCF819FC9
:10154000C00111248F539E4F0E94B308882309F4D1
:10155000B9CFE091BF011E9FF0011124EF53FE4F60
:1015600020813181428153816481758186810E940D
:1015700093068091BF0190E0019687709927809330
:10158000BF019ACF682F80910001909101010E94C4
:101590007F1A0895682F80910001909101010E94A7
:1015A0008D1A089580910001909101010E949B1A6B
:1015B000089580912002869586958695089580915C
:1015C00020028770089590912002977081E009F4BD
:1015D00080E0089580914402089590914402892BFF
:1015E00080934402089580959091440298239093AB
:1015F0004402089510924402089590914302892B69
:10160000809343020895809590914302982390938C
:101610004302089510924302089508950E940D0B0D
:10162000089590912102292F282331F08095892354
:10163000809321020E940E0B089508950E941D0BB5
:10164000089590912202292F2823281729F0982BFA
:10165000909322020E941E0B089590912202292F3E
:10166000282331F080958923809322020E941E0B4B
:10167000089580912202882329F01092220280E0AE
:101680000E941E0B0895CF93DF93E0910001F0912B
:101690000101809144028083E0910001F0910101F9
:1016A000808190914302892B80839091220299231B
:1016B00081F0E0910001F09101018081892B80830C
:1016C00080910001909101010E94EB1981110E940B
:1016D000390BC0910001D091010140E250E060E07F
:1016E00072E0CE010E946823892B59F080E2FE014E
:1016F000A0E0B2E001900D928A95E1F7CE010E9440
:101700007919DF91CF91089508950E94840B08956F
:101710009091970292FF11C098E0899F9001112447
:10172000622B609320020E94D4068091200286954D
:10173000869586950E94850B08950E94D40608958B
:101740001092200280E00E94850B08959091200263
:101750008095892380932002282F277069F48917A8
:1017600059F09091970292FF07C0869586958695CD
:101770000E94E0060E94A00B08959091970292FBB0
:10178000222720F9281769F080FB92F9909397029D
:1017900080919602909197020E94060C82E00E942E
:1017A000A60B08958091970282FB882780F991E02B
:1017B00089270E94BD0B089581E00E94BD0B08950A
:1017C00080E00E94BD0B08956FEF7FEF90E080E016
:1017D0000E94BA23089590E080E00E948623863E0E
:1017E0009E4F19F40E94B113089580E0089582E09D
:1017F00090E00E947E23089583E090E00E947E2383
:10180000089584E090E00E9486230895BC0184E05E
:1018100090E00E94BA230895AB01BC018FE090E0F4
:101820000E94AE230895AB01BC0183E190E00E94C9
:10183000AE23089560E070E0CB010E94130C089580
:1018400060E070E0CB010E940C0C0E941A0C08951D
:10185000A8E0B0E0EEE2FCE00C942D2366EE7EEF13
:1018600090E080E00E94BA2360E082E090E00E9475
:101870009C2360E083E090E00E949C231092BE01D4
:1018800060E074E184E090E00E94BA2360E086E0CA
:1018900090E00E949C236FEF87E090E00E949C23E1
:1018A00040E050E0BA0188E090E00E94AE2360E0A2
:1018B00084E290E00E949C2360E087E190E00E9437
:1018C0009C2360E08CE090E00E949C2360E08DE02F
:1018D00090E00E949C2319821A821B821C821D8226
:1018E0001E821F82188648E050E068E170E0CE0159
:1018F00001960E948C2340E050E0BA0180E290E023
:101900000E94AE2380E00E94CA130E94F9130E9435
:10191000200C2896E2E00C9449230E94280C08959C
:10192000682F8EE090E00E949C230895A6E0B0E02E
:10193000ECE9FCE00C942B230E945D1B8C01809150
:101940004502909146028017910781F019821A8210
:101950000E945D1B682F49815A81792F80E090E0B9
:101960000E94250310934602009345022696E4E068
:101970000C9447230E94691B609353027093540296
:10198000809355029093560260934F0270935002D9
:1019900080935102909352020895089508950E94F1
:1019A000CE0C089508950E94D20C089581E0089508
:1019B00089E89FE00E9462190E94CD0C0E94CF0C22
:1019C00008950E94D60C08950E94E10C0895089590
:1019D00008950E94E70C0E94E80C08950E94A80F49
:1019E0000E94F90208950E94541B0E9409140E944B
:1019F00081100E94EE0C0E94D30C0895A6E0B0E086
:101A0000E4E0FDE00C9421230E94D60C81110AC071
:101A10000E94960C0E94B5120E940C032696EEE0DE
:101A20000C943D230E94971027E4822E22E0922EF0
:101A3000640110E0F601E190F1906F01812F0E94A6
:101A4000CB0F1F5F143009F44BC0E816F90691F371
:101A50008091570281FD0E94D40F0E94E40C782EE1
:101A600010E066246394812F0E94CB0F7C01F40167
:101A7000A190B1904F018A159B0561F1A826BF2462
:101A800000E0CC24C394D12CC5018C219D21892B4D
:101A9000C1F07720B1F009831A830E945D1B9C83FB
:101AA0008B836D8221E0C7018C219D21892B09F454
:101AB00020E049815A816B817C818D81922F0E9427
:101AC00025030F5FCC0CDD1C0A30F1F6F4013297D0
:101AD000F182E0821F5F143031F60E94BA0C9ACF77
:101AE000E816F90609F0B4CF93CF1F93CF93DF9395
:101AF0000E94A40EEC01C11580E5D807F0F5C115D0
:101B000080E4D80708F09CC0C03ED10520F5CD3C4C
:101B1000D10508F082C0C83AD10578F4C53AD1059C
:101B200008F073C0C130D10519F1209709F1C43014
:101B3000D105F0F4D0E0C0E01BC0C33CD105D0F724
:101B4000C85AD0E0CC0FDD1FC15BDE4F0990D881B1
:101B5000C02DD4640DC0C11580E2D80708F0D1C0F3
:101B6000C11581E0D80708F05AC0C83ED10510F76A
:101B7000CE01DF91CF911F910895C03682E5D8073D
:101B800018F5C03482E5D80708F06BC0C03282E592
:101B9000D80708F05FC0C11582E5D80708F497C0E0
:101BA0002C2F2695269580E2289F900111248C2FBA
:101BB0008370C1E0D0E002C0CC0FDD1F8A95E2F750
:101BC000C22BD32BDD68D4CFC03A82E5D80760F4AE
:101BD000C03882E5D80708F459C0CF71D0E0DC2FB7
:101BE000CC27C46FD06AC4CFC03C82E5D80708F4C4
:101BF00062C0C03E82E5D80708F09CCFDC2FCC271E
:101C0000CC27DF71C06FD06AB3CFC55AD0E0CB57B5
:101C1000DE4FC881D0E0D064ABCFD065A9CF8D2F87
:101C20000E94460F182FCE0199270E94A40EC12FA3
:101C3000D0E0DC2FCC27CC27DF71C82BD92B98CF55
:101C4000CE0199270E94A40ECC27DF70C82BD92B78
:101C5000D06A8ECFCF71D0E0DC2FCC27C16FD06A95
:101C600087CF2C2F26952695277080E2289F9001FC
:101C700011248C2F8370C1E0D0E002C0CC0FDD1F97
:101C80008A95E2F7C22BD32BDC6872CF2C2F2695D6
:101C90002695277080E2289F900111248C2F837055
:101CA000C1E0D0E002C0CC0FDD1F8A95E2F7C22B65
:101CB000D32BDA685DCF8C2F8F710E94460FC82F0F
:101CC000D0E0DC2FCC27CC27DF71D06251CF8C2F16
:101CD0008F710E94460F55E0D695C7955A95E1F74A
:101CE000CF70D0E0DC2FCC27282F30E084FF05C058
:101CF00044E0220F331F4A95E1F7C22BD32BD06962
:101D000037CF8D2F8F710E94460F182FCE01992744
:101D10000E94A40EC12FD0E0DC2FCC27CC27DF718E
:101D2000C82BD92BD2CF462F743030F46A3020F430
:101D3000672F0E946117089590E080E008950E9447
:101D4000930E0E94750D089582389105B9F1B0F493
:101D50008133910509F47DC048F48932910509F475
:101D60006DC08A32910509F47BC0089585339105D1
:101D700009F45FC08933910509F10895833E910507
:101D8000D9F138F4803E910529F1823E910579F12F
:101D90000895863E9105D9F1873E910509F43EC02C
:101DA000843E910541F52091970221FF24C0809146
:101DB000960284FD19C087EE90E008952091960266
:101DC000237009F05AC02091970223FF14C089E2C2
:101DD00090E008952091960220FD38C0309197023E
:101DE00030FF09C024FF43C090E080E008952091B7
:101DF000960222FDF7CF08952091960222FD3AC067
:101E00003091970230FD39C024FFF5CFEDCF2091FE
:101E1000960223FFF0CF24FDE7CFCDCF209196028D
:101E200023FD2EC03091970231FFEECF84EE90E07B
:101E300008952091960225FFDECFC9CF209196020A
:101E400025FD21C02091970223FFD5CF89E390E0A3
:101E5000D2CF2091960226FFCECF8AE290E008955D
:101E60002091960226FFC7CF81E390E0089583EE8C
:101E700090E0089582EE90E0089580EE90E008955D
:101E800086EE90E0089585E390E0089590919602A3
:101E900092FF06C0282F28712830F9F4877F8460CC
:101EA00093FF06C0282F28712831F1F4877E8461C2
:101EB0002091970220FF06C0382F38713830D9F4AE
:101EC000877F816021FF06C0282F28712831D1F437
:101ED000877E816194FD877E0895282F24712430A8
:101EE000F9F68B7F8860DCCF282F2471243101F72D
:101EF0008B7E8861DDCF382F3171313019F78E7FBD
:101F00008860E0CF282F2171213121F78E7E8861F2
:101F1000E1CF80E008950E94E40B08950E9497109D
:101F20002FEF86E791E0215080409040E1F700C01C
:101F300000000E94971080E00E94CB0F80FF04C039
:101F40000E948B0F0E94A81B08950E948E0F089577
:101F50000E94EB0B811102C00E948D0C0E94F70BB6
:101F6000809357020E94010C9093970280939602EF
:101F70000E94A50F0E94FC0B0E94A7068091BD0144
:101F80000E94BF06089508950E94C30F0895089502
:101F90000E94C70F0895E82FF0E0EE0FFF1FE056F4
:101FA000FD4F808191810895089580EA8A95F1F727
:101FB000089500C008950E94D50F0895F894E82F61
:101FC000E295EF70F0E031A1282F2F7081E090E0D2
:101FD00001C0880F2A95EAF7982F9095932391A333
:101FE00092A1892B82A378940895CF93DF9386ECF6
:101FF0000E94DE0F84E30E94DE0F83E30E94DE0F67
:1020000082E30E94DE0FC8E8D1E089918F3F11F092
:102010000E94DE0F81E0C239D807B9F7DF91CF9176
:102020000895AF92BF92DF92EF92FF920F931F93AA
:10203000CF93DF938C01D62EC62FD0E0CE018E56E3
:102040009E4F7C01FC0120812F3F09F44DC0F89484
:10205000E22FE295EF70F0E031A12F7081E090E087
:1020600001C0880F2A95EAF7932F982B91A392A18C
:102070008095892382A378940E94D90FE8E8F1E043
:1020800042E951E021E030E0B12CA12C61916F3F99
:10209000A9F1A62FA295AF70B0E090968C9190E038
:1020A0006F7002C0959587956A95E2F780FD26C00E
:1020B000C901A82AB92A220F331F4E175F0731F72B
:1020C000F70180818F3F11F00E94DE0F61E0A114C3
:1020D000B10409F460E08D2D0E94DB0FCC0FDD1FF1
:1020E000C00FD11FB982A882DF91CF911F910F91AC
:1020F000FF90EF90DF90BF90AF90089590E080E068
:10210000D8CF0E94F50F88E0E0EAF2E0DF01982FD7
:102110001D929A95E9F7E8E9F2E0DF011D928A95B0
:10212000E9F784E00E94D2100E94C40F0895A8E04D
:10213000B0E0EDE9F0E10C942A238E010F5F1F4F10
:1021400088E0F80111928A95E9F7F12C6F2DC8010A
:102150000E941110F394F4E0FF12F8CF48E050E031
:10216000B80188E992E00E94682321E0009709F411
:1021700020E0892B41F088E0F801A8E9B2E0019065
:102180000D928A95E1F744E060EA72E088E992E016
:102190000E94D310182F0E94C80F812F2896E5E0C7
:1021A0000C9446230895CF92DF92EF92FF921F93F3
:1021B000CF93DF936C017B01C42F222349F081E090
:1021C00080935A020E945D1B90935902809358029B
:1021D00010915A0211110AC010E0812FDF91CF91A6
:1021E0001F91FF90EF90DF90CF900895809158025B
:1021F000909159020E94751B059770F3D0E0CC0FA7
:10220000DD1FAE01B601C7010E946823892B41F092
:10221000AE01B601C7010E94752310925A02DDCFAC
:1022200010E0FBCF0E94561D0E94F30C0E94631D1C
:1022300008950E94681D0E94FE0C0E94821D089550
:102240000E94F61A0E943C1D0E94D80C0E94121196
:102250000E9419110E94E90CFBCF8091610280FF5E
:102260000DC06091070170E0660F771F603871053F
:1022700070F56115710569F1862F089581FF07C01A
:102280006091070184E0689FB0011124EFCF609155
:10229000070182FD0AC0809160028823A9F0209185
:1022A000060160910701821710F088E0ECCF869F4D
:1022B000C001112433E0880F991F3A95E1F7622F8E
:1022C00070E00E94FC22D2CF68E070E0D5CF8FE7AB
:1022D000089581E008958091610280FF0CC06091B3
:1022E000030170E0759567957595679561157105A2
:1022F00049F1862F089581FF06C06091030170E0C7
:1023000075956795F3CF6091030182FD0BC09091A5
:102310005F029923A1F06091020180910301961759
:1023200038F0682F70E06038710500F38FE708958A
:10233000899FC001112470E00E94FC22F4CF61E06B
:1023400070E0D7CF81E008958D3C31F40E942D11CB
:1023500081958093650208958E3C19F40E942D1199
:10236000F8CF8F3C31F40E942D1181958093640247
:102370000895803D19F40E942D11F8CF893D29F46C
:102380000E946B118093660208958A3D21F40E9499
:102390006B118195F7CF8B3D31F40E946B118195C4
:1023A0008093670208958C3D19F40E946B11F8CF59
:1023B0009FE2980F983070F4815D990B21E030E036
:1023C00001C0220F8A95EAF780916302822B8093E5
:1023D000630208958D3D31F48091610281608093A4
:1023E000610208958E3D21F4809161028260F7CFF1
:1023F0008F3DB9F7809161028460F1CF4091640212
:102400008D3C59F48091650287FF0DC010926502E2
:1024100041110BC01092600208C08E3C81F4809183
:10242000650218169CF3442381F080916602909116
:102430006702892B09F05AC010925F0208958F3C01
:1024400049F447FFF0CF1092640280916502811138
:10245000ECCFE0CF803D19F41416ACF3E4CF9091AB
:102460006602893D29F41916F4F610926602DBCF54
:102470008A3D19F497FFD7CFF8CF909167028B3D33
:1024800029F497FFD0CF10926702CDCF8C3D19F47D
:102490001916CCF3C8CF9FE2980F983090F4815D65
:1024A000990B21E030E0B90102C0660F771F8A95D1
:1024B000E2F7CB01809590916302892380936302B8
:1024C000B2CF8D3D31F4809161028E7F80936102A5
:1024D000AACF8E3D21F4809161028D7FF7CF8F3D91
:1024E00009F0A1CF809161028B7FF0CF08950E9407
:1024F0005D1B9C019091640280916502982B21F0F4
:1025000030935E0220935D02909166028091670293
:10251000982B21F030935C0220935B0282E692E0DC
:102520000E949319089586E0E2E6F2E0DF011D9231
:102530008A95E9F71092600210925F021092610290
:102540000895FC01828181110EC0838181110BC02D
:102550008481811108C091E08581811101C090E0E2
:10256000892F8170089581E0FCCFA6E0B0E0EBEB0D
:10257000F2E10C942C2386E0E2E6F2E0DE01119613
:1025800001900D928A95E1F7109264021092650213
:1025900010926602109267028B819C81892B89F0D0
:1025A00080915D0290915E020E94751BAC0190913A
:1025B00060029923C9F1809108018417150608F477
:1025C00040C08D819E81892B91F080915B0290911A
:1025D0005C020E94751BAC0190915F02992309F483
:1025E00071C0809104018417150608F479C0BE01FA
:1025F0006F5F7F4F82E692E00E94AD1A811105C0A5
:1026000082E692E00E94A11281110E94771286E078
:10261000FE013196A2E6B2E001900D928A95E1F7B3
:102620002696E3E00C944823209109018AE0289F34
:10263000900111242417350720F69F5F90936002C4
:1026400002C09F3FD1F71B81112359F00E942D1129
:102650009FEF11160CF491E0899F802D1124809337
:1026600064021C81112359F00E942D119FEF111655
:102670000CF491E0899F802D1124809365023091A4
:102680006402332309F49DCF20916502222309F4CB
:1026900098CF45EB3403C0011124992359F090934E
:1026A000640245EB240390011124332339F0309365
:1026B000650287CF81E080936402F3CF81E080934D
:1026C00065027FCF209105018AE0289F90011124A7
:1026D0002417350708F08BCF9F5F90935F0202C0ED
:1026E0009F3FD1F71D81112359F00E946B119FEF7D
:1026F00011160CF491E0899F802D112480936602BD
:102700001E81112359F00E946B119FEF11160CF4DA
:1027100091E0899F802D1124809367023091660299
:10272000332309F464CF20916702222309F45FCF99
:1027300045EB3403C0011124992359F090936602AC
:1027400045EB240390011124332339F030936702C1
:102750004ECF81E080936602F3CF81E080936702E1
:1027600046CF85E290E00E947E23823289F486E2A1
:1027700090E00E947E23853059F487E290E00E9429
:102780007E2391E0873009F090E0892F81700895D1
:1027900080E0FCCFCF93C82F6FEF811162E285E21A
:1027A00090E00E949C236FEFC11165E086E290E00B
:1027B0000E949C236FEFC11167E087E290E00E94C6
:1027C0009C23CF910895089588E290E00E947E2393
:1027D000682F70E090E080E008950895CF93C62FB1
:1027E0000E94ED136C2F88E290E00E949C23CF9111
:1027F000089580E00E94CA1360E070E0CB010E945F
:10280000EE130E94ED160E94BC1781E00E94CA13CD
:1028100008950E94E3130E94E4130E94ED130E94A6
:10282000B113811102C00E94F913089508959C010B
:10283000FB018581882351F0A90157574038510584
:1028400030F4822F0E94CC1780E0089581E0089533
:102850002FEFFC01208308950E942814089580E042
:102860000895B0E0A0E0E7E3F4E10C942723EC0145
:10287000C62E0E942F14811110C0E881E150E3316F
:10288000B8F4F0E0E252FC4D0C94102319828CE075
:102890008A836C2DCE010E94301CCDB7DEB7E8E0F4
:1028A0000C94432389818230C1F028F4813061F097
:1028B0008FEF8883EECF833099F08430C9F71A8286
:1028C0001B821C821D82E5CF0E94691B0E94162379
:1028D0006A837B838C839D83DCCF0E94E413F6CFD5
:1028E0008A81082F10E07E019EE0D92ED80E043098
:1028F000110578F6802F0E94CB0FF7019383848314
:102900000F5F1F4FF2E0EF0EF11CD012F0CFC1CFDE
:102910008981823031F0853059F68A810E941614FF
:10292000B8CF6A817B818C819D810E9416230E9491
:10293000EE13AFCF4B816A8189810E94AF16982731
:10294000892798279D838C83A4CF2C813D813227B2
:10295000232732274B816A8189810E94D11699CF22
:102960000E94ED1696CF6C2DCE010E942C1491CFB3
:102970000E946D1789838DCF0E946F179827892732
:1029800098279A83898385CF6B8170E089819A81AA
:10299000AE014C5F5F4F9827892798270E947217D6
:1029A00078CF6B8170E089819A81AE014C5F5F4F77
:1029B0009827892798270E9497176BCF0E94BC17EA
:1029C00068CF0E949D16D6CF6B8170E089819A8175
:1029D000AE014C5F5F4F9827892798270E941917EF
:1029E00058CF6B8170E089819A81AE014C5F5F4F57
:1029F0009827892798270E943D174BCFCF93DF93C5
:102A0000EC01FB018581882309F4D2C09E01305777
:102A10002332310508F0B2C00E94010C9093970256
:102A200080939602FE01E150F047E232F10520F476
:102A3000EF50FC4D0C94102380919602816080939E
:102A4000960293C0809197028860809397028DC010
:102A5000809196028260F3CF809196028460EFCFDE
:102A6000809196028860EBCF809197028160EDCFD4
:102A7000809197028260E9CF809196028061DFCFDA
:102A8000809196028062DBCF809196028064D7CFDE
:102A90000E945C06809196028068D1CF8091960258
:102AA0008C60CDCF809197028360CFCF80919602CA
:102AB0008E7FC5CF80919702877FC7CF8091960286
:102AC0008D7FBDCF809196028B7FB9CF809196028A
:102AD000877FB5CF809197028E7FB7CF8091970285
:102AE0008D7FB3CF809196028F7EA9CF8091960281
:102AF0008F7DA5CF809196028F7BA1CF0E945C062F
:102B0000809196028F779BCF80919602837F97CF9B
:102B1000809197028C7F99CF8091960282FB9927B2
:102B200090F921E0922790FB82F990FB83F987CFFF
:102B300080919702982F909591708E7F892B90FBB2
:102B400081F983CF90919602892F8F7B96FF8064C5
:102B500076CF0E945C0690919602892F97FB87F9A9
:102B600080586DCF81E00E94900C809196029091E8
:102B700097020E94060C0E945C0680E0DF91CF91D4
:102B8000089580E0F0CF90919602892F8F7E94FF78
:102B9000806155CF90919602892F8E7F90FF816042
:102BA0004ECF90919702892F877F93FF88604DCFFA
:102BB00081E0E4CFB0E0A0E0E0EEF5E10C94282362
:102BC000E82FF0E0E450FF4FD490282F269526956B
:102BD000269530E0F901E456FE4F0491877010E02D
:102BE000082E02C0159507950A94E2F70170112787
:102BF000F901E457FE4FE490F12C082E02C0F59441
:102C0000E7940A94E2F791E0E922FF24F901E458FD
:102C1000FE4FC491D0E002C0D595C7958A95E2F7E2
:102C2000C170DD270115110519F081EE0E946803BE
:102C3000E114F10419F086EE0E9468038D2D0E94C4
:102C40000004E114F10419F086EE0E94B5030115A9
:102C5000110519F081EE0E94B503CD2B19F08CE21D
:102C60000E940004CDB7DEB7E7E00C944423EF9256
:102C7000FF920F931F93CF93DF93EC01162F0AE07F
:102C80008881882309F454C0813009F04EC08981BD
:102C9000813099F47E0122E0E20EF11C8A810E94CB
:102CA0000004E7012196812F815050F3EFE9FFE006
:102CB0003197F1F700C00000F7CF823041F47E0178
:102CC00082E0E80EF11C8A810E946803EACF83301B
:102CD00041F47E01E2E0EE0EF11C8A810E94B50310
:102CE000E0CF843011F02196DDCF2A81229690E04A
:102CF00080E0AE014F5F5F4F2053330B2A30310528
:102D000048F0019778F2EFE9FFE03197F1F700C062
:102D10000000F7CF089FB001099F700D1124C90171
:102D2000860F971F2981EA01E4CF0E94DA15BACFF6
:102D3000CDB7DEB7E6E00C94452388E0089550E077
:102D4000440F551F94E1699F400D511D112490E5DA
:102D5000899F400D511D1124CA01899608950F9332
:102D60001F93CF93DF938830C8F46430B8F44A30AF
:102D7000A8F40E949F168C010E947E23C82FD0E0E9
:102D8000DC2FCC27C80101960E947E239E01282BB0
:102D9000C901DF91CF911F910F91089590E080E0DC
:102DA000F8CF0F931F93CF93DF93122F032F883009
:102DB00078F4643068F44A3058F40E949F16EC01AD
:102DC000602F0E949C23612FCE0101960E949C23BC
:102DD000DF91CF911F910F9108950F931F93CF9380
:102DE000DF93D0E0C0E010E019C00E94E60121E0CE
:102DF00030E08C171D0639F034F0402F612F8C2FF6
:102E00000E94E8019C01402F612F8C2F0E94D11657
:102E10000F5F0A3051F71F5F143011F000E0E5CF6B
:102E20002196C830D105F9F6DF91CF911F910F910E
:102E30000895EF92FF920F931F93CF93DF93EC01CE
:102E40008A017C01E60EF71ECE018996CE15DF05BC
:102E500029F4CDB7DEB7E6E00C944523C03822E074
:102E6000D20740F40E947E23F80180830F5F1F4F3A
:102E70002196EACFF8011082F9CFB0E0A0E0E3E4B8
:102E8000F7E10C9427237C016A018C01060F171FC0
:102E9000EC01CE018996C017D10729F4CDB7DEB772
:102EA000E8E00C944323C03822E0D20740F4FE014E
:102EB000EE19FF09EC0DFD1D60810E949C232196F7
:102EC000E8CF883038F4643028F44A3018F40E948F
:102ED000AF16089590E080E0089580E8089587E5B2
:102EE00091E00895EF92FF920F931F93CF93DF939A
:102EF000EC018A017C01E60EF71ECE0187559D4F3D
:102F0000CE15DF0529F4CDB7DEB7E6E00C944523F6
:102F1000C73521E0D20740F40E947E23F801808368
:102F20000F5F1F4F2196E9CFF8011082F9CFB0E073
:102F3000A0E0EDE9F7E10C9427237C016A018C0104
:102F4000060F171FEC01CE0187559D4FC017D10703
:102F500029F4CDB7DEB7E8E00C944323C73521E070
:102F6000D20740F4FE01EE19FF09EC0DFD1D608152
:102F70000E949C232196E7CFCF93DF93C9EAD2E04A
:102F800060E0CE010E949C232196C11584E0D80701
:102F9000B9F7DF91CF910895A8E0B0E0E2EDF7E155
:102FA0000C942523F82E87FD6EC08FEF93E00E94CE
:102FB0007E23811168C009EA12E0F11035C0FE01DC
:102FC00031966F0188E011928A95E9F77801FFEF59
:102FD000EF1AFF0AC8010E947E2389831A82882380
:102FE00009F451C08130D1F4580182E0A80EB11C1F
:102FF000C7010E947E238A83882309F444C09FEF7F
:10300000980F9330F0F4780193E0E90EF11CC501BC
:103010000E947E238B838823B1F11C826AE0C60163
:103020000E9437168701D2CF011584E0180759F1A5
:10303000C8010E947E23811101C0FA940F5F1F4FC7
:10304000BCCF7501843051F702E010E07501EFEF5D
:10305000EE1AFE0AC5010E947E23F601E00FF11F61
:103060008083882381F08C3741F4E2E0F0E0EC0FBC
:10307000FD1FE00FF11F1082D1CF0F5F1F4F5701CF
:103080000730110519F72896EAE00C944123CF93F5
:10309000DF93EB0186319C4711F50E94EA0A9D817E
:1030A000992399F08A7A91E009F490E0909368026C
:1030B000811109C089E20E94C20A0E94430B80E08C
:1030C000DF91CF91089585E3F6CF80916802811159
:1030D00004C089E20E94CA0AF0CF85E3FBCF81E0F9
:1030E000EFCF0F931F93CF93DF93C42FD22FFC0109
:1030F00085818823C9F040936B020E945D1B9093E9
:103100006A028093690280E28C0F883040F4C770B5
:1031100081E001C0880FCA95EAF70E940904DF9197
:10312000CF911F910F91089510916B02141332C02B
:103130008091690290916A020E94751B883C9105FA
:1031400048F5C0E2CD0F1D17B9F080E2810F88303D
:1031500040F4177081E001C0880F1A95EAF70E94C9
:103160001004C83048F481E09D2F977001C0880F8B
:103170009A95EAF70E940904802F0E940004C83043
:1031800070F6D77081E001C0880FDA95EAF70E94E7
:103190001004C5CF80E28C0F883008F6C77081E03C
:1031A00001C0880FCA95EAF7F2CF0F93DB0188516F
:1031B0009C4787309105A0F5FC01ED5EFB4D0C941A
:1031C000102306E221EE41EE6AE17CE7CD010E9488
:1031D000711880E00F91089507E225EE45EE6BE14E
:1031E0007CE7F4CF06E221EE40EE68E17CE7EECF2B
:1031F00007E225EE44EE69E17CE7E8CF06E221EE46
:1032000042EE6CE17CE7E2CF07E225EE46EE6DE1AF
:103210007CE7DCCF08E221E045EE6EE17CE7D6CF2B
:1032200015968C91882319F010926B02D3CF81E010
:10323000D1CF1F93CF93DF9387372CE7920759F0B5
:10324000C1E088379C47E1F4FB01C581CC2371F1D3
:103250000E945C1906C0FB01C581CC23B1F00E941D
:1032600059190E94D4060E945F19D82F0E945C1938
:10327000C82F0E9459194D2F6C2F0E94FC07C0E0E7
:103280008C2FDF91CF911F9108950E9459190E94B0
:10329000E0060E945F19182F0E945C19D82F0E9427
:1032A0005919412F6D2F0E94FC07EACF0E945C192B
:1032B000EECF80910C01089580910B0108958091CB
:1032C0000A0108959093A7018093A6010895909311
:1032D0007102809370020895E0917002F091710282
:1032E000309729F00190F081E02D0995089580E054
:1032F0000895E0917002F0917102309799F0209159
:103300001501222359F02091960227FF07C0DC0106
:103310002C9111962C93119726E02C930280F38127
:10332000E02D09950895E0917002F09171023097B7
:1033300039F022E0DC012C930480F581E02D099521
:103340000895A3E0B0E0E7EAF9E10C942D23209181
:103350006E0230916F0228173907A1F090936F0227
:1033600080936E02E0917002F0917102309751F0FB
:1033700023E029839B838A830680F781E02DCE0199
:10338000019609952396E2E00C944923A3E0B0E06E
:10339000ECECF9E10C942D2320916C0230916D023C
:1033A00028173907A1F090936D0280936C02E09189
:1033B0007002F0917102309751F024E029839B83D1
:1033C0008A830680F781E02DCE0101960995239628
:1033D000E2E00C944923FC01329680911501882388
:1033E00021F0809196029EE187FF96E080E0915067
:1033F00008F4089521912223D1F38F5FF8CF66233B
:1034000001F1209115012223F1F02091960227FF6E
:103410001AC0462F4695469546954E3190F46770F2
:1034200021E030E002C0220F331F6A95E2F7840FDB
:10343000911DFC01828190E02823392381E0232B18
:1034400069F480E00895FC013296089621912617D0
:1034500021F0E817F907D1F7F4CF81E008959C0136
:10346000FC0132969FEF80E04191461751F09F3F5B
:1034700019F4411101C0982F8F5F8630A9F79F3F43
:1034800009F40895290F311D97FD3A95F9016283DA
:103490000895FC01329608962191261303C0DF019E
:1034A00011971C92E817F907B9F70895E62FE695EA
:1034B000E695E695EE3168F4E80FF92FF11D677097
:1034C00021E030E001C0220F6A95EAF78281822B69
:1034D00082830895E62FE695E695E695EE3170F441
:1034E000E80FF92FF11D677021E030E001C0220FD5
:1034F0006A95EAF7209582812823228308952091F6
:103500001501222339F02091960227FF03C00E9463
:10351000561A08950E942F1A08952091150122230A
:1035200039F02091960227FF03C00E946A1A08957D
:103530000E94491A0895FC01329680911501882352
:1035400051F08091960287FF06C08EE1DF011D9247
:103550008A95E9F7089586E0F9CF46E050E00E94A9
:10356000682321E0892B09F420E0822F0895089533
:103570000E94B71A0895811106C081E080937202FB
:103580000E94B81A089582E0F9CF83E08093720216
:103590000E94B81A08950E94BB1A089581E0809392
:1035A00072020E94B81A08950E94CE1A08950895D2
:1035B00008950E94D81A0895089508950E94D71A70
:1035C0000895CF930E94DC1A0E9497100E94DD1A82
:1035D000C0E08C2F0E94CB0F892B31F4CF5FC43019
:1035E000C1F780E0CF91089581E0FCCF85B7806876
:1035F00085BF85B7806885BF08951F921FB61F924B
:1036000011248F939F93AF93BF9380917302811185
:1036100013C08091A8029091A902A091AA02B09132
:10362000AB024196A11DB11D8093A8029093A902FF
:10363000A093AA02B093AB02BF91AF919F918F91DB
:103640001F901FBE1F9018958091B002843031F1F9
:103650000E94DC021092730288E190E020E40FB631
:10366000F894A895809360000FBE2093600083B704
:10367000817F846083BF83B7816083BF789488959E
:1036800083B78E7F83BF0FB6F894A89580916000B2
:10369000886180936000109260000FBE08950E94C0
:1036A0005C060E94E102089582E084BD93E095BD2E
:1036B0009AEF97BD80936E0008952FB7F89480918C
:1036C000A8029091A902A091AA02B091AB022FBFCB
:1036D00008952FB7F8946091A8027091A902809183
:1036E000AA029091AB022FBF08959C014FB7F894A6
:1036F0008091A8029091A902A091AA02B091AB0278
:103700004FBF821B930B089578941F921FB61F9290
:1037100011248F939F93AF93BF938091A8029091B0
:10372000A902A091AA02B091AB020196A11DB11D00
:103730008093A8029093A902A093AA02B093AB022F
:10374000BF91AF919F918F911F901FBE1F901895B1
:1037500081E08093E00080E28093D8001092C9005D
:103760008FE19EE40197F1F700C0000087E090EB45
:10377000DC018093B9029093BA02A093BB02B0938C
:10378000BC0288E19CE00FB6F894A8958093600095
:103790000FBE90936000FFCF88E19CE00FB6F894D5
:1037A000A895809360000FBE90936000FFCF80913A
:1037B000940208959B01BA019091B0029430E9F40B
:1037C0008F708093E9009FEF8091E800915085FD14
:1037D00006C085ED8A95F1F700009111F5CF809133
:1037E000E80085FF0AC050E040E0C9010E94261EA3
:1037F0008091E8008E778093E800089543E050E0E0
:10380000BC0184E00E94DA1B089546E050E0BC0150
:1038100084E00E94DA1B0895CF93DF93EC0180913E
:103820001501811111C048E050E0BE0181E00E9405
:10383000DA1B80E2FE01A4E7B2E001900D928A95C6
:10384000E1F7DF91CF9108958091960287FF05C03F
:1038500040E284E050E0BE01EACF48E081E0FACFE8
:10386000603231F440E250E0BC0182E00E94DA1B99
:1038700008958091AF02811109C00E9405200E9425
:1038800062208091E20084608093E20008951092AB
:10389000AF0208950E94CE1A08956091AC0281E0B3
:1038A000611101C080E00E94C51A08959091B00294
:1038B00081E0943009F080E06091AC020E94CB1A64
:1038C000089542E061EC81E00E94811F42E261ECD8
:1038D00084E00E94811F42E261EC82E00E94811F2D
:1038E00042E260EC83E00E94811F9091B00281E08F
:1038F000943009F080E06091AC020E94BB1A0895F8
:103900008091B202833009F463C030F48130E1F178
:10391000823009F4A0C008958A3009F48CC08B303D
:1039200009F471C0893009F052C08091B10281322E
:1039300009F04DC08091B5029091B602009719F040
:10394000029709F044C08091E800877F8093E800E7
:103950008091E80082FF37C09091F3008091F200DF
:10396000029731F48091F100813011F0863021F41A
:103970008091F100809394028091E8008B7780938E
:10398000E8000E94B51F23C08091B102813AF9F48A
:103990008091E800877F8093E8008091B502909144
:1039A000B602892B61F460E284E792E070E00E9445
:1039B000C41E8091E8008B778093E800089560E052
:1039C00090E080E0F3CF8091B0028111C1CF0895E3
:1039D0008091B102813AD9F78091B5029091B602F7
:1039E000892BA9F78091E800877F8093E800809178
:1039F000E80080FFFCCF809115018093F100809159
:103A0000E8008E77BCCF8091B102813201F78091BE
:103A1000B5029091B602892BD1F68091E800877F9C
:103A20008093E8000E94B51F8091B3028093150136
:103A30000E945C0608958091B102813241F6809126
:103A4000E800877F8093E8000E94B51F8091B40250
:103A50008093950208958091B102813A09F0B7CF21
:103A60008091E800877F8093E8008091E80080FFE4
:103A7000FCCF80919502C1CF84B7877F84BF0FB6FA
:103A8000F894A895809160008861809360001092FE
:103A900060000FBE80E890E00FB6F894809361005C
:103AA000909361000FBE0E94D41A08950E940520D1
:103AB0000E946220E2EEF0E080818460808378944E
:103AC0000E94E12208958DE091E00E946719089517
:103AD0008091B002853031F48091B002853019F0C8
:103AE0000E944F1B08950E94241B8091AE028823E0
:103AF00099F30E94E11A882379F30E94101E0E9414
:103B00005C06EACFA0E2B0E0E8E8FDE10C942D23EA
:103B10008091B002843009F583E08093E9008091C0
:103B2000E80082FF1AC08091E80090E085FF09C09C
:103B300050E040E060E270E0CE0101960E94751E08
:103B400091E08091E8008B778093E800992329F039
:103B500060E2CE0101960E943114A096E2E00C943E
:103B600049239A014091B7025091B8020E94B91DB1
:103B70000895492F55274330510521F168F441300C
:103B8000510509F443C04230510509F444C090E0A6
:103B900080E050E040E026C04132510551F1423210
:103BA0005105A9F76330710590F7FB01EE0FFF1F78
:103BB000E756FE4F408151816A567E4FFB0180815E
:103BC00090E010C099278130910581F0009729F08D
:103BD0000297E9F6ECEAF1E002C0EEECF1E0849144
:103BE00090E0AF01F901518340830895EAEBF1E0E1
:103BF000F6CF6330710558F6660F771FFB01E1566B
:103C0000FE4F4081518189E090E0ECCF82E190E06D
:103C10004DE252E0E7CF8BE590E042ED51E0E2CF9C
:103C200080E189BD82E189BD09B400FEFDCF8091AC
:103C3000D8008F7D8093D8008091E00082608093CF
:103C4000E0008091E00081FDFCCF0895AF92BF922B
:103C5000CF92DF92FF920F931F93CF93DF936C016C
:103C6000EB018A010E94D41FF82E811123C0011597
:103C7000110539F0F80180819181C81BD90BC80E5C
:103C8000D91EB12CA12C2097A9F08091E80085FDC8
:103C900022C08091E8008E778093E800011511051D
:103CA000A1F0F80180819181A80EB91EB182A08295
:103CB00085E0F82E8F2DDF91CF911F910F91FF900E
:103CC000DF90CF90BF90AF9008950E94D41F8823BB
:103CD000D1F2F82EEFCFF60181916F018093F100C0
:103CE0002197FFEFAF1ABF0ACECFAF92BF92CF920C
:103CF000DF92FF920F931F93CF93DF936C01EB0141
:103D00008A010E94D41FF82E811123C001151105CC
:103D100039F0F80180819181C81BD90BC80ED91EDA
:103D2000B12CA12C2097A9F08091E80085FD22C03C
:103D30008091E8008B778093E80001151105A1F0D0
:103D4000F80180819181A80EB91EB182A08285E020
:103D5000F82E8F2DDF91CF911F910F91FF90DF9063
:103D6000CF90BF90AF9008950E94D41F8823D1F2C6
:103D7000F82EEFCF8091F100F60181936F0121972A
:103D8000FFEFAF1ABF0ACECFFC018091B70290912E
:103D9000B80286179707A0F06115710529F4909174
:103DA000E8009E779093E80090E06115710551F46A
:103DB000911108C08091E80082FF34C080E008952E
:103DC000BC01F2CF8091B0028823C1F18530C1F1EE
:103DD0008091E80083FD30C08091E80082FDEACF49
:103DE0008091E80080FFE1CF8091F3002091F20004
:103DF000382F6115710519F02830310558F091E020
:103E00002830310509F090E02091E8002E772093CA
:103E1000E800CBCF81918093F100615071092F5F51
:103E20003F4FE7CF8091B002882341F0853041F0C9
:103E30008091E80083FFBECF81E0089582E008957D
:103E400083E00895FC018091B7029091B802861733
:103E50009707A0F06115710529F48091E8008E772D
:103E60008093E80090E06115710551F4911108C04C
:103E70008091E80082FF35C080E00895BC01F2CF58
:103E80008091B0028823C9F18530C9F18091E800A2
:103E900083FD31C08091E80082FDEACF8091E80087
:103EA00080FFE1CF8091F3002091F200382F61155F
:103EB000710519F02830310558F091E028303105AE
:103EC00009F090E08091E8008E778093E800CBCFF6
:103ED00084918093F1003196615071092F5F3F4FBB
:103EE000E6CF8091B002882341F0853041F0809187
:103EF000E80083FFBDCF81E0089582E0089583E06C
:103F00000895982F973028F08F708093E90081E012
:103F100008959093E900242F762F50E0981731F000
:103F20007091EC002091ED005091F00021FD02C055
:103F30009F5FE8CF3091EB003E7F3093EB003091F4
:103F4000ED003D7F3093ED003091EB003160309318
:103F5000EB007093EC002093ED005093F000209163
:103F6000EE0027FDE5CF80E008958091B10287FF44
:103F700013C08091E80082FF06C08091E8008B7733
:103F80008093E80004C08091B0028111F2CF0895BF
:103F90008091B0028823D9F38091E80080FFF8CFA8
:103FA0008091E8008E77ECCF2091E4003091E5001D
:103FB00095E6A9012091EC00822F817020FF06C0B8
:103FC0008091E80080FF06C080E008952091E8001D
:103FD00022FD1AC08091B002882389F0853089F0D3
:103FE0008091EB0085FD0FC02091E4003091E50049
:103FF00042175307F9F29150E1F684E0089582E008
:10400000089583E0089581E008950E9474200E943D
:104010007C20E0EEF0E0808181608083E8EDF0E0DC
:1040200080818F77808319BCA7EDB0E08C918E7F63
:104030008C9380818F7E80831092AF0208950F93BE
:104040001F93CF93DF930E9474200E947C20C8EDC1
:10405000D0E088818F778883888180688883888191
:104060008F7D888319BC1092B0021092AC0210921E
:10407000AE021092AD0200EE10E0F80180818B7F5D
:10408000808388818160888342E060E080E00E94D4
:10409000811FE1EEF0E080818E7F8083E2EEF0E030
:1040A000808181608083808188608083F801808145
:1040B0008E7F8083888180618883DF91CF911F917B
:1040C0000F910895E8EDF0E080818F7E8083E7ED29
:1040D000F0E080818160808384E082BF81E0809312
:1040E000AF020E941F200895E8EDF0E080818E7FEE
:1040F00080831092E20008951092DA001092E1009D
:1041000008951F920F920FB60F9211242F933F9391
:104110004F935F936F937F938F939F93AF93BF93CF
:10412000EF93FF938091E10082FF0BC08091E2004A
:1041300082FF07C08091E1008B7F8093E1000E94A5
:10414000E0228091DA0080FF19C08091D80080FFC2
:1041500015C08091DA008E7F8093DA008091D900BB
:1041600080FF96C080E189BD82E189BD09B400FE6F
:10417000FDCF81E08093B0020E94391C8091E10064
:1041800080FF19C08091E20080FF15C08091E2009D
:104190008E7F8093E2008091E20080618093E20054
:1041A0008091D80080628093D80019BC85E080930C
:1041B000B0020E944D1C8091E10084FF2BC08091D1
:1041C000E20084FF27C080E189BD82E189BD89B515
:1041D000982F917080FFFBCF8091D8008F7D8093C6
:1041E000D8008091E1008F7E8093E1008091E20011
:1041F0008F7E8093E2008091E20081608093E200F4
:104200008091AC02882309F449C084E08093B00215
:104210000E94561C8091E10083FF29C08091E2003A
:1042200083FF25C08091E100877F8093E10082E0D9
:104230008093B0021092AC028091E1008E7F809357
:10424000E1008091E2008E7F8093E2008091E200A5
:1042500080618093E20042E060E080E00E94811F84
:104260008091F00088608093F0000E944A1CFF91CA
:10427000EF91BF91AF919F918F917F916F915F91DE
:104280004F913F912F910F900FBE0F901F90189557
:1042900019BC1092B0020E94471C70CF8091E300BD
:1042A00087FD93E09093B002B3CF1F920F920FB6A9
:1042B0000F9211242F933F934F935F936F937F93AC
:1042C0008F939F93AF93BF93CF93DF93EF93FF931E
:1042D000D091E900DF708091EC00C82FC17080FDA3
:1042E000C0E81092E9008091F000877F8093F00091
:1042F00078940E9499211092E9008091F0008860E2
:104300008093F000CD2BCF70C093E900FF91EF9127
:10431000DF91CF91BF91AF919F918F917F916F91DD
:104320005F914F913F912F910F900FBE0F901F9073
:104330001895AAE2B0E0EFE9F1E20C942C2381EBAE
:1043400092E02091F100FC012193CF01F2E0893B42
:104350009F07B9F70E94801C8091E80083FF1EC16F
:104360008091B1029091B2029A3008F017C1E92F02
:10437000F0E0E65EFB4D0C941023803899F0823813
:1043800009F00CC18091B5028F70873008F006C12A
:104390008093E9008091EB0085FB882780F91092DB
:1043A000E90006C08091AD029091AE029111826049
:1043B0009091E800977F9093E8008093F10010922D
:1043C000F1008091E8008E77E5C0882309F4D3C01E
:1043D000823009F0E3C08091B3028111D6C0809190
:1043E000B5028F702FEF280F263008F0D7C08093CA
:1043F000E9002091EB0020FFC8C0933031F4809198
:10440000EB0080628093EB00C0C09091EB00906164
:104410009093EB0021E030E001C0220F8A95EAF78B
:104420002093EA001092EA008091EB008860EACFC6
:104430008111B4C01091B3021F778091E30080789E
:10444000812B8093E3008091E800877F8093E800D0
:104450000E94B51F8091E80080FFFCCF8091E300AF
:1044600080688093E30082E0111183E08093B002C2
:1044700095C08058823008F091C08091B30290912D
:10448000B4028C3D23E09207A1F583E08A838AE29F
:1044900089834FB7F894DE01139620E03EE051E2A5
:1044A000E32FF0E050935700E49120FF03C0E29522
:1044B000EF703F5FEF708E2F90E0EA30C0F0C7964C
:1044C0008D939D932F5F243159F74FBF8091E80062
:1044D000877F8093E8006AE270E0CE0101960E9437
:1044E000C41E8091E8008B778093E80057C0C09687
:1044F000E7CF6091B5027091B602AE014F5F5F4F9A
:104500000E94B11DBC01892B09F448C09091E800BC
:10451000977F9093E80089819A810E94221FE1CFC2
:104520008038E1F58091E800877F8093E8008091F2
:10453000AC028093F10045CF811130C09091B3025D
:10454000923060F58091E800877F8093E800909337
:10455000AC020E94B51F8091AC02882311F084E068
:1045600005C08091E30087FDFACF81E08093B0021F
:104570000E94611C13C08091B302813079F481E004
:10458000933009F080E08093AE021092E9008091B0
:10459000E800877F8093E8000E94B51F8091E800C3
:1045A00083FF0AC08091E800877F8093E8008091B4
:1045B000EB0080628093EB00AA96E3E00C94482322
:1045C0000895CF938091B0028823A1F0C091E900B3
:1045D000CF709091EC00892F817090FD80E8C82BFE
:1045E0001092E9008091E80083FD0E949921CF702C
:1045F000C093E900CF91089597FB072E16F400941D
:1046000007D077FD09D00E94542307FC05D03EF463
:10461000909581959F4F0895709561957F4F08956E
:10462000EE0FFF1F0590F491E02D0994692796275E
:10463000692778278727782708952F923F924F92EE
:104640005F926F927F928F929F92AF92BF92CF9222
:10465000DF92EF92FF920F931F93CF93DF93CDB72B
:10466000DEB7CA1BDB0B0FB6F894DEBF0FBECDBFA3
:1046700009942A88398848885F846E847D848C8474
:104680009B84AA84B984C884DF80EE80FD800C817D
:104690001B81AA81B981CE0FD11D0FB6F894DEBF60
:1046A0000FBECDBFED010895AA1BBB1B51E107C092
:1046B000AA1FBB1FA617B70710F0A61BB70B881FB2
:1046C000991F5A95A9F780959095BC01CD01089541
:1046D000FB01DC0104C08D910190801921F441504F
:1046E0005040C8F7881B990B0895FB01DC0102C0FC
:1046F00001900D9241505040D8F70895F999FECF9E
:1047000092BD81BDF89A992780B50895A8E1B0E0DF
:1047100042E050E00C94C223DC01A40FB51F4150CD
:10472000504048F0CB01840F951F2E910E949D238D
:1047300041505040D0F70895262FF999FECF92BDF1
:1047400081BDF89A019700B4021639F01FBA20BD56
:104750000FB6F894FA9AF99A0FBE08950396272F88
:104760000E949D230E949C23252F0E949D23242F7D
:104770000C949D230196272F0E949D230C949C232B
:10478000DC01CB01FC01F999FECF06C0F2BDE1BD11
:10479000F89A319600B40D9241505040B8F7089500
:1047A000F894FFCF56045604A604A60410052C0561
:1047B0008504850431059805A705A70546145214FC
:1047C00088149A14A514B014B314B314B314581461
:1047D0005814B814BC14C414D114DE14E114E41435
:1047E000F1145615CA155E1528152C1562153015CD
:1047F000661572153C15C3154015761544157A15C6
:10480000A21548157E15A9154E1584158C1534155D
:104810006A1538156E15521588159815B215C115FB
:1048200022155A15D115F218F818E118EC18FE18CF
:1048300004190A19BD21E521CE22E521CE22182234
:084840003922CE2290229C22B5
:104848002302280850011E0A1401030201D71B0C79
:104858001C051CFE1B01E200E900EA00B500B600D9
:10486800B700CD008301CC008A0192019401210296
:10487800230224022502260227022A02B300B400DA
:104888006F0070009F01CB019F02A002818283E22A
:1048980000E900EA00B500B600B700CD008301CCFE
:1048A800008A019201940121022302240225022692
:1048B8000227022A02B300B4006F0070009F01CBE8
:1048C800019F02A002818283919094669731F7F646
:1048D800F5F4C63433324022B617033F026102E4CE
:0648E80001FD011D0200AC
:00000001FF
